:020000041000EA
:1000000000B5324B212058609868022188439860DF
:10001000D860186158612E4B002199600421596104
:100020000121F02299502B49196001219960352056
:1000300000F044F80222904214D00621196600F024
:1000400034F8196E01211966002018661A6600F04E
:100050002CF8196E196E196E052000F02FF8012189
:100060000842F9D1002199601B49196000215960AB
:100070001A491B48016001219960EB211966A021F2
:10008000196600F012F800219960164914480160C1
:100090000121996001BC002800D000471248134993
:1000A000086003C880F30888084703B5996A0420EC
:1000B0000142FBD001200142F8D103BD02B5186610
:1000C0001866FFF7F2FF186E186E02BD00000240BE
:1000D000000000180000070000035F00212200005C
:1000E000F4000018222000A00001001008ED00E03C
:1000F000000000000000000000000000070B8FD58A
:10010000681800200132001011BB0010ED31001002
:1001100000000000000000000000000000000000DF
:10012000000000000000000000000000C5320010C8
:10013000000000000000000065320010E5440010DF
:100140005D3400105D3400105D3400105D3400102B
:100150005D3400105D3400105D3400105D3400101B
:100160005D3400105D3400105D3400105D3400100B
:100170005D3400105D3400105D3400105D340010FB
:100180005D3400105D3400105D3400105D340010EB
:100190005D3400105D3400105D3400105D340010DB
:0801A0005D3400105D34001015
:1001A800002934D00123002210B488422CD3012422
:1001B8002407A14204D2814202D209011B01F8E7B7
:1001C800E400A14204D2814202D249005B00F8E770
:1001D800884201D3401A1A434C08A04202D3001B9C
:1001E8005C0822438C08A04202D3001B9C082243CF
:1001F800CC08A04202D3001BDC082243002803D00D
:100208001B0901D00909E3E7100010BC704701B5CC
:10021800002000F05FF802BD0029F8D003B5FFF711
:10022800C1FF0EBC4243891A1847C046002941D075
:1002380010B404004C40A44601230022002900D534
:100248004942002800D5404288422CD30124240783
:10025800A14204D2814202D209011B01F8E7E4005D
:10026800A14204D2814202D249005B00F8E78842E9
:1002780001D3401A1A434C08A04202D3001B5C0861
:1002880022438C08A04202D3001B9C082243CC08BE
:10029800A04202D3001BDC082243002803D01B091C
:1002A80001D00909E3E710006446002C00D540425C
:1002B80010BC704701B5002000F00CF802BDC04624
:1002C8000029F7D003B5FFF7B3FF0EBC4243891AE4
:1002D8001847C0467047C0468446100062468C46A0
:1002E8001900634600E0C0461FB501F065FA002812
:1002F80001D40021C8421FBD10B501F0A5F9404244
:10030800013010BD10B501F057FA002801DB0020BC
:1003180010BD012010BDC04610B501F04DFA0028EF
:1003280001DD002010BD012010BDC04610B501F050
:10033800CDF9002801DC002010BD012010BDC04609
:1003480010B501F0C3F9002801DA002010BD012022
:1003580010BDC0461C2101231B04984201D3000C88
:1003680010391B0A984201D3000A08391B09984220
:1003780001D30009043902A2105C40187047C04636
:100388000403020201010101000000000000000056
:10039800002B15D1002A13D1002906DB01DC002827
:1003A80006D00020C043410802E080210906002051
:1003B80007B4024801A14018029003BD19FFFFFFCE
:1003C80003B4684601B5029802F00FF9019B9E46F6
:1003D80002B00CBC7047C046002B11D1002A0FD1C7
:1003E800002900D1002802D00021C943080007B421
:1003F800024802A14018029003BDC046D9FEFFFF83
:1004080003B4684601B5029802F080F8019B9E4645
:1004180002B00CBC7047C0464A02F8B5430244001B
:10042800C50F500A84464800240E000E5F0AC90F03
:100438009B099209261A8D4200D09EE0002E42DDCB
:100448008021C90400281ED1002A0AD0661E012C6A
:1004580005D19B1801340B4246D1013C01E0FF2C29
:1004680014D15A0704D00F221A40042A00D00433AA
:100478005A0100D42EE101340026FF2C19D09D4EDC
:10048800DB081E4015E0FF2CEBD00A431B2E01DDD4
:100498000133E6E72020801B11008240F140501E06
:1004A80082410A439B185A01DBD501340026FF2CF0
:1004B8001AD1FF23E005DB057602760A184030439F
:1004C800ED072843F8BD002E2ED08026011BF60428
:1004D800002C14D1002B00D1F3E04C1E01290AD1C5
:1004E8009B1802243342B8D0012283491A405B0882
:1004F8000B401343B5E7FF2906D11300AEE0FF28F0
:1005080000D1E0E00C0033431B2C02DD531C040037
:10051800A7E719002026E140341BA3405C1EA34135
:100528000B4304009B18BEE7FE20611C01421ED14C
:10053800002C0DD1002B00D1C7E0002A00D190E794
:100548009B185A0100D48CE76C4A13400C0088E7CA
:10055800002BD2D0FF24002A00D182E78023DB03BE
:100568009F4202D39C4500D26746FB0076E00C0010
:10057800FF299ED09B185B0873E7002E25DD002815
:100588001CD1002A00D16CE7661E012C06D19B1AEB
:100598005A0100D465E79B019E0975E0FF2C00D144
:1005A8005FE701211B2E07DC2020801B1100824001
:1005B800F140501E824111435B1AE9E7FF2C00D13C
:1005C8004FE78021C9040A43EBE7002E25D0051B1D
:1005D800002C0DD1002B08D06E1E012D03D10D006B
:1005E800D31A0134D4E7FF2D08D113002C0021E0E1
:1005F800FF286CD080242E00E404234301241B2E02
:1006080007DC2025AD1B1C00AB40F4405D1EAB4150
:100618001C43131B0D000400BAE7FE26601C304281
:100628002DD1002C14D1002B06D125002600131E35
:1006380000D13EE70D0014E7002A00D111E79E1A09
:10064800D31A7001F6D4331E00D00AE7350030E71C
:10065800002B05D1002A49D013000D00FF2400E724
:10066800FF24002A00D1FCE68023DB039F4200D24E
:100678007BE79C4500D378E767460D0075E79E1A2F
:10068800700115D50D00D61A3000FFF763FE330050
:1006980005388340844210DC2022001B0130121AE6
:1006A80019009340C1405A1E934100240B43D8E6D9
:1006B800002EE9D135003400FBE6104A241A134015
:1006C800CFE6130042E7130021E71300C9E6130041
:1006D8000400AFE7DE08FF2C00D0EAE6002E00D1C8
:1006E800E7E68023DB03FF241E43E2E680261500AD
:1006F800F603F6E7FFFF7F1FFFFFFF7DFFFFFFFB0E
:10070800F0B5C30F85B0440245000F1C640A2D0ED6
:10071800039302930AD0FF2D3BD08023E400DB042F
:100728001C4300237F3D019500930EE001230194B3
:100738000093002C09D02000FFF70CFE431F9C40BB
:1007480076235B421B1A019300957D027E006D0A99
:10075800360EFF0F002E23D0FF2E2ED08023ED0063
:10076800DB041D4333007F3B002201980399C31A21
:10077800009879408000104301380E2823D801F0F2
:100788006BFE4D9973999299734D4D9273616161A6
:100798005300022301950093002CD6D00133C3E700
:1007A8002B000122002DE0D02800FFF7D3FD431FC6
:1007B8009D4076235B421B1AD6E733000222002DA8
:1007C800D3D00132D1E764016D01AC4228D31A209D
:1007D8000122641B0126270052006400002F01DB60
:1007E800A54201D8641B324301380028F3D1601EAA
:1007F8008441144318007F30002838DD620704D094
:100808000F222240042A00D00434220103D5803369
:1008180018002B4A1440E508FE281DDD00250FE0CE
:100828001B200022013BD5E78023DB031C4203D0B9
:100838001D4201D12C00029780250299ED03254322
:10084800FF2009E00399009A022AE7D0032A2FD053
:1008580000252800012ACDD16D026D0AC005284364
:10086800C907084305B0F0BD2C003900ECE70122A8
:100878000025121A28001B2AEEDC9E3325009C4016
:10088800D540631E9C4125436B0704D00F232B40A2
:10089800042B00D0043580232800DB0418401D42B7
:1008A8000BD1ED08D8E780240023E4030293C3E7C3
:1008B8000291C1E700252800CEE700250120CBE7FB
:1008C800FFFFFFF7F0B5C30F85B047024400029160
:1008D8007F0A240E03930AD0FF2C71D080227F3C1C
:1008E80026000023FF00D204174301930CE00123E4
:1008F8003E1E019308D03800FFF72CFD7626431FD3
:100908009F407642361A0194029B5C025D00DB0F21
:10091800640A2D0E02935AD0FF2D64D0802328003C
:10092800E400DB041C437F3800230299039A4A4001
:10093800811901988C46850001311D430A2D00DD7F
:1009480078E0022D55DC013D012D63D9250CA4B2B8
:1009580026003B0CB8B246435C4368436B4300191E
:100968001F00330C1B189C4202D9802040023F18FC
:100978001804B6B28619B401601E84411B0CB60E69
:10098800DB1934439B011C431B0168D50123600814
:100998001C40044308007F30002862DD630704D050
:1009A8000F232340042B00D00434230103D58031C6
:1009B80008003E4B1C40E508FE2833DD00254CE0CE
:1009C800022326000193002F9ED001338DE72000DB
:1009D8000123002CA9D0FFF7BDFC431F9C407623C0
:1009E8005B42181AA0E728000223002C9DD001338F
:1009F8009BE70120A840A6250600ED002E402842CE
:100A08001DD19025AD00284247D1B93DFF3D284270
:100A18009CD0029A022BD1D0032B42D0002528006B
:100A2800012BB7D16D026D0AC0052843D2071043C8
:100A380005B0F0BD039A0F2D04D00B2DE9D03C0072
:100A4800019BE7E78023DB031F4203D01C4201D14F
:100A58002700029A8025ED033D43FF20E2E7614627
:100A680098E7012300251B1A28001B2BDADC9E318E
:100A780025008C40DD40631E9C4125436B0704D054
:100A88000F232B40042B00D0043580232800DB04DF
:100A980018401D4207D1ED08C4E780273200FF0344
:100AA800D8E72700D6E700250120BBE7FFFFFFF7BF
:100AB80041024300C20F490A00201B0E7E2B03DDB2
:100AC8009D2B02DD084BD018704780200004084396
:100AD800952B05DD963B9840002AF5D04042F3E778
:100AE8009621CB1AD840F7E7FFFFFF7F002370B5A8
:100AF8000400984209D0FFF72DFC9E231B1A962B61
:100B080008DC082829D0083884406402D805640A1B
:100B1800204370BD992B1BDD020021001B32914040
:100B28000A00511E8A410521091ACC4014432200AB
:100B38000B4D2A40610704D00F212140042900D021
:100B48000432510102D59F232A401B1AD408DCE73E
:100B5800421F0528EBD09440E9E79623D5E7C04625
:100B6800FFFFFFFBF0B587B004920593CB0F01930D
:100B7800059B0D034C006D0A410F5F0029431D03BF
:100B88007B0D0293059B6D0ADB0F0393049B049A6C
:100B98005B0F2B43019E029D039F640DC000D20092
:100BA800651BBE4200D02CE1BB4EB446002D00DCD4
:100BB80070E0029E002E1ED11E00164300D19BE25B
:100BC8006E1E012D13D1821882428041C9184042FD
:100BD8000918012410000B0200D472E00224AF4B64
:100BE80042080B40012101400A43D80706E1654548
:100BF8001CD1A94C65E0644563D0382D47DC8026BC
:100C0800360433432E001F2E2FDC20251F00AD1B7A
:100C1800AF4002953D001700F7402F43029DF34077
:100C2800AA40551EAA411D00174303E00127029D53
:100C3800382EE8DD3F18874280416918404209187C
:100C480038000B023DD5002501342F006445C6D17C
:100C5800934B24051C403B031B0B1C43019B2800A2
:100C6800DB071C43210007B0F0BD35001F00203D05
:100C7800EF403D000027202E03D04037BF1BBB406C
:100C88001F0017437B1E9F412F430025D2E70025F5
:100C98000127CFE7002D6FD0029D2E1B002C30D1ED
:100CA8000D00054300D121E2751E012E24D18018C4
:100CB80090429241C9185242891801340B0200D55A
:100CC8008CE7430709D00F230340042B05D0031DED
:100CD800834280414042091818006F4B0A0200D431
:100CE80010E2002501342F009C42B1D06B4BC008A4
:100CF8000B405D070543F2E166451DD11900100060
:100D080077E7029C6445F9D0382E32DC8024350020
:100D1800240421431F2D1ADC20240E00671BBE402B
:100D280034000600B840EE4034430600E940701E27
:100D3800864126430C0002E00126382DEADDB01872
:100D480090429241E4185242A118029C79E72C0083
:100D58000E00203CE64034000026202D03D040360B
:100D6800761BB1400E000643711E8E4126430024B7
:100D7800E5E700240126E2E74A4F661C3E4230D1EF
:100D88000D000543002C12D1002D00D1B1E11D004A
:100D9800154396D0821882428041C91840420918EA
:100DA80010000B028DD53D4B1940340089E7002D0A
:100DB800A4D01D006446154383D080254C07C00885
:100DC800C9082D032043294206D0DC082C4203D150
:100DD8002100D0085B071843CB00410F1943C0001E
:100DE80007E734002F00664500D131E782188242B8
:100DF8008041CB1840421B18D807520810435908A5
:100E08005FE7002D65DD029E002E25D11E001643EA
:100E180000D171E16E1E012D0ED1821A90428041DF
:100E2800C91A4042091A012410000B0200D448E7ED
:100E3800490206004D0A07E1174FBD4200D1D8E626
:100E48000125029F382E11DD451BA8428041C91B90
:100E58004042091A2800E8E70F4EB44200D130E7B3
:100E6800382D33DC8026360433432E001F2E1BDC3E
:100E78002027BD1B02951D00029FF340BD40AC46D4
:100E880015006746F5403D43029FBA40571EBA41D8
:100E98001F001543D8E7C046FF070000FFFF7FFF8C
:100EA8000000F07FFE07000035001F00203DEF40E6
:100EB8003D000027202E03D04037BE1BB3401F0043
:100EC80017437B1E9F413D430027BDE700270125AF
:100ED800BAE7002D59D0029D2E1B002C16D10D000B
:100EE80005430FD0751E012E09D1101A8242924176
:100EF800591A039B5242891A0193013495E78E4F80
:100F0800BE4221D119001000340050E08A4C029DE5
:100F1800A54200D1F2E0382E34DC802435002404C8
:100F280021431F2D1DDC20260C00761BB440A4464F
:100F38000400B040EC406746461EB041E9403C43DF
:100F4800044326000C0002E00126382DE9DD901B41
:100F5800824292411C1B039B5242A11A0193029C9C
:100F680063E72C000E00203CE6400024202D03D02F
:100F78004034641BA1400C000443611E8C4126438D
:100F88000024E4E700240126E1E76C4E651C3542A5
:100F98004AD10D001F0005431743002C23D1002D13
:100FA80008D13D1E019700D152E619001000039B9D
:100FB800019386E6002F00D183E6861AB042BF412E
:100FC800CD1A7F42ED1B2F0206D5101A824292419C
:100FD800591A5242891AEAE737002F4300D1A5E08F
:100FE800290030006DE6002D07D1002F00D194E0D4
:100FF8001900039B10000193FBE5002F00D1F8E5D1
:1010080080254C07C008C9082D032043294200D178
:10101800E2E6DC082C4200D0DEE65B07D008184385
:10102800039B21000193D7E6861AB042BF41CD1A2F
:101038007F42ED1B2F0228D5161AB24292415B1A45
:1010480052429D1A039B0193002D25D02800FFF7DB
:1010580081F90300083B20223100D21A9D40D1407B
:10106800294335009D409C423BDC1A1B013220235A
:1010780008009B1A2C009D409840D4406B1E9D414F
:10108800D1402043284300241BE637002F43DBD1FF
:101098003D003C000197DBE53000FFF75BF90300FA
:1010A80018331F2BD7DD3100083881409C4212DCF1
:1010B8001B1B5A1C1F2ADADD0C001F3BDC402800D2
:1010C800202A03D040239B1A99400800431E9841C8
:1010D80000212043D7E7E41A194B0B405D07DF08CE
:1010E800B6E5E41A164B28001940EAE51900100085
:1010F8005BE619001000E4E52C00E2E51900100099
:10110800029C54E74A07C70817433D00C9089C4298
:101118000FD10D4304D12F009AE5802101970903CF
:101128003D0080273F03044C0F4391E53D000197A4
:101138008EE50F008CE5C046FF070000FE070000A3
:10114800FFFF7FFFF0B589B0009201930D03CA0F2E
:101158004B00060004002D0B5B0D0692059244D04F
:101168005B4A93426AD0420FED0015438022120475
:101178002A430292574AC4009F180026019B019AED
:101188001D03D20F5B0000982D0B5B0D079265D0F5
:101198004F4A934200D188E0ED004E49420F2A435E
:1011A80080255B189C462D041543C2000021079B2F
:1011B8000698584063460490B0000843FB1A01386B
:1011C80003930E2800D989E001F050F97E00280227
:1011D800D40128021E022802D4017E007E001E02CD
:1011E800D401C701C701C701B5012B00034302930E
:1011F8002CD0002D15D02800FFF7ACF80100030013
:101208000B391D22521A31001800D1400838854088
:101218000A002A433500854002922F4F2C00FF1AFE
:10122800ABE7FFF797F801000300153120331C29BD
:10123800E7DD3200083882400292EEE702002A43D6
:10124800029207D01F000326029597E7029C012609
:10125800270093E71F000226029C8FE7009A2A4383
:101268002AD0002D15D02800FFF774F801000200DD
:101278000B391D2310005B1A009908388540D940A6
:101288002943009D8540144B9B1A9C462A000D005B
:101298008CE7FFF75FF801000200153120321C29A6
:1012A800E7DD009908388140EDE7009A2A4307D026
:1012B80002009C4603217AE715009446012176E74F
:1012C80015009C46022172E700231C00004A22E117
:1012D800FF07000001FCFFFF0DFCFFFF029B9D4282
:1012E80004D300D022E1A24200D91FE1029BE60705
:1012F800D907630819430C00029B5B080293130289
:101308002D02170E00932B0C2F4307930799BBB29E
:1013180002980593FEF780FFBBB243430A04210CF1
:10132800050011438B4207D9C919013D8F4203D8E3
:101338008B4201D9851EC919C81A0799FEF76CFF97
:10134800BAB242430904A4B203000C43A24207D92B
:10135800E419013BA74203D8A24201D9831EE4192C
:101368002D041D43A41A009B009A1B0C120405931C
:10137800120CABB206925A4306980292059A290CAF
:10138800484353435143029A1B18120C9446634432
:10139800984202D9802252028918029A180C120423
:1013A8001B04120C40189A18844203D302951ED1CC
:1013B80096421CD26B1E0293009BF6189E429B41DC
:1013C8005B42DB19E418A74203D310D1009BB34258
:1013D8000DD8A04202D80AD1B24208D9AB1E029356
:1013E800009BF6189E429B415B42DB19E418B51A34
:1013F800AE42B641201A7642801B874200D1BEE039
:101408000799FEF709FFBBB243430A04290C0400FD
:1014180011438B4207D9C919013C8F4203D88B422B
:1014280001D9841EC919C81A0799FEF7F5FEBBB27F
:1014380043430904ADB202000D43AB4207D9ED198D
:10144800013AAF4203D8AB4201D9821EED19ED1A19
:101458002304059E1343069906981C0C9AB251431F
:1014680060437243744312180E0CB218904202D9AA
:10147800802040022418100C09041204090C0019D9
:101488005118854204D31C00854219D1002919D06E
:101498007D195C1EBD420ED3854203D310D1009A3C
:1014A8008A420AD29C1E009B5A009A429B415B4288
:1014B800DB19ED180092854202D1009B994201D0B8
:1014C80001231C43039B5B4A9A18002A5ADD6307D1
:1014D8000BD00F232340042B07D0231DA342A44184
:1014E8000299644209191C000291029BDB0108D58C
:1014F800514B029A1A408023DB009C460292039AC1
:1015080062444E4B9A4200DD8CE0029BE4085B0784
:101518001C43029BDB081B0312051B0B1343049A95
:101528002000D2071343190009B0F0BD039B002621
:10153800013B0393E3E6802302991B03194205D07C
:101548001D4203D11400079B029505938023029A3C
:101558001B031343059A0492B8E63100069B0493D3
:1015680002295FD0032956D00129ABD100242300DA
:101578002200D0E7079B140002950493F0E70124AA
:1015880064429FE70121891A3829EFDC1F2926DCEC
:101598002B4A039B9446634420009C40029AC8400F
:1015A8009A4023000243581E83411A43029B1400A9
:1015B800CB40620709D00F222240042A05D0221D01
:1015C800A242A44164421B19140080211A00090494
:1015D8000A400B4229D1E1085C070C439AE71F2314
:1015E8005B429B1A029ADA400023202906D015494B
:1015F800039B8C460299634499400B001C43631E6D
:101608009C4100231443D4E700231C000593802346
:101618001B0302939AE7049B059397E700231C009A
:101628001A0078E70024230050E6002301221C005A
:1016380071E7C046FF030000FFFFFFFEFE07000042
:101648001E0400003E040000F0B50D0087B00092B3
:101658000193040004900198EB0F4600C70F1A4845
:1016680003938446009B09030593019B6A001B03AF
:101678000120090B520D1B0B760D624503D0664500
:101688000DD107B0F0BD9642FBD1009A0B4313432E
:101698002343F6D1039BD81B431E9841F1E7012051
:1016A800B242EED19942ECD1049B059EB342E8D1F7
:1016B800039BBB4206D0002AE3D121434B1E99412C
:1016C8000800DEE70020DCE7FF070000F0B587B080
:1016D800009001911D00009B14000493019B2903B5
:1016E8001A03130B334A03939446019B68005F0067
:1016F8007B0D0293029A019B0594DB0F090B400DA9
:10170800EE0F624512D1009A039F17434FD1029AF8
:10171800904204D00120002B06D0023804E0214377
:10172800081E44D1B342F5D107B0F0BD604511D1D0
:1017380021433CD1029A002A04D0B342EAD1181EB0
:10174800F2D105E0009A03991143F6D1301EEBD18E
:1017580001202DE0029A002A17D00028DAD0B342DF
:10176800D8D1029A8242D5DC029A8242E7DB039AF8
:101778008A42CFD8E3D1049A05998A42CAD8049AF2
:10178800059900208A42CFD2D9E7009F039A1743D0
:10179800002802D0002FD9D0CFE70C4304D0002F67
:1017A800D4D0B342E3D0B5E7002FBDD0B2E70220D2
:1017B8004042B9E7FF070000F0B587B000900191FB
:1017C8001D00009B14000493019B68001A03130B6F
:1017D800344A03939446019B05945F007B0D029362
:1017E800019B029AD90F2B031B0B400DEE0F62458C
:1017F80013D1009A039F174352D1029A904204D002
:101808000120002907D0023805E00220234302D135
:101818001800B142F4D107B0F0BD604513D10220E1
:101828002343F8D1029B002B04D0B142E8D1081E13
:10183800F1D105E0009B039A1A43F6D1301EEAD194
:1018480001204042E7E7029A002A17D00028D7D0A3
:10185800B142D5D1029A8242D2DC029A8242E6DBB8
:10186800039A9A42CCD8E2D1049B059A9342C7D8EE
:10187800049B059A00209342CDD2D8E7009F039A93
:101888001743002802D0002FD8D0CEE71C4304D03D
:10189800002FD3D0B142E3D0B2E7002FBBD0AFE7DF
:1018A8000220B8E7FF070000F0B58BB00092019363
:1018B8000D034B00CA0F06002D0B5B0D059200D1DE
:1018C80014E1CF4A934200D138E1ED00420F2A4398
:1018D80080252D041543CB4AC4009B18039300238D
:1018E8000293019B00981E035A00DB0F360B520D22
:1018F800049300D131E1C24B9A4200D153E1430F26
:10190800F60033438026BF4936041E43C3005018EF
:1019180000220599049F7940009103994118069186
:10192800013103910299880010430A2800DD73E110
:10193800022800DD46E10138012800D855E1190CDC
:101948009BB202911900220CA4B2514320008C468C
:10195800029F029958435143674305916744010C1C
:10196800C91904908C4505D9802040028446059FFA
:1019780067440597080C84466846008A09040918D4
:101988000991310CB6B2049130002100049F5043F4
:101998007C4371437A4324180F0C3C19A04202D9A6
:1019A800802040021218200C8218240489B2079261
:1019B80062180892089962468C46290CADB2280034
:1019C800029F58436F434B4362449446029CFF185E
:1019D800020CD2194C43934202D980235B02E418CB
:1019E800130C1B1902932B0080B2120412180498CE
:1019F800734345434E434143A8191D0C2D18AE426D
:101A080002D9802040020918059C6046A446089C1B
:101A18006044A042BF418018904292412E049BB27C
:101A2800F618079B7F42F61853420493029BF41959
:101A38009C46A4446346049ABC42A4419B18079A56
:101A480064429642B641029A764234432D0C641998
:101A58009445AD41049A6D429342924152421543D6
:101A68006419099A6418410211434A1E9141C00D34
:101A7800DE0D640201435B0226430B43E40100D4FC
:101A8800DFE001215A080B401A43F307CE40134305
:101A9800039A5D495218002A00DCD5E0590709D09D
:101AA8000F211940042905D0191D99429B415B4219
:101AB800F6180B00F10106D58021C9008C46534A5F
:101AC8001640039A624452498A4200DD09E17407CC
:101AD800DB081C43F60813053603009A360B33431C
:101AE800D2071343200019000BB0F0BD2C000443AB
:101AF8002BD0002D16D02800FEF72CFC0400020085
:101B08000B3C1D2330001B1B1100D84008398D40A9
:101B180003002B4335008D403E492C008A1A1D00D6
:101B28000392DCE6FEF716FC0400020015342032AE
:101B38001C2CE6DD330008388340EDE704002C4315
:101B480007D0039304000323CAE625000123039466
:101B5800C6E6039325000223C2E6009B334329D03F
:101B6800002E14D03000FEF7F5FB010003000B39FE
:101B78001D221800521A009908388640D140314376
:101B8800009E86402348C01A33000E00C0E6FEF7C8
:101B9800E1FB01000300153120331C29E8DD009921
:101BA80008388140EEE7009B334307D0030010005C
:101BB8000322AEE61E0018000122AAE610001E004D
:101BC8000222A6E601218140A6200F00C00007409E
:101BD800014227D190208000014277D1B938FF38DF
:101BE800014200D1ABE604990091022A79D0032A78
:101BF80075D0012A00D04BE70026340032006AE78E
:101C0800FF07000001FCFFFFFF030000FFFFFFFECE
:101C1800FE0700000DFCFFFF059900910F2805D075
:101C28000B28E0D02E002300029ADEE78022120360
:101C380015424FD016424DD13500049A00921C002F
:101C480048E0069A039223E70120801A3828D3DC5B
:101C58001F2827DC2649039A8C461C006244310061
:101C680093409140C4401A002143531E9A410B00EF
:101C7800C64013435A0709D00F221A40042A05D038
:101C88001A1D9A429B415B42F618130080213000CE
:101C9800090408400E4227D17407DB0802001C43E0
:101CA800F60818E71F2149428A1A3100D14000225C
:101CB800202805D00F48039A844662449640320093
:101CC80013435A1E934100260B43D3E780253C005B
:101CD8002D030097802636032E43074AFBE635007E
:101CE800ADE700263400F8E7002601223400F2E6CA
:101CF8001E0400003E040000FF070000F0B585B098
:101D080000920193CB0F0D030293019B4C006D0AC7
:101D1800410F29435D001E036B0D9C46019B760A0B
:101D2800DD0F009B009A5B0F3343BE4E640DC0006D
:101D3800D200B44523D11E0016430396039FBA4E22
:101D4800A619002F0CD0029F0095AF4200D0B5E134
:101D5800002E00D104E1002C00D0BAE26446B8E0BD
:101D680001276F40029D0097BD4200D0AFE1002ED1
:101D780000D1F5E0002CF1D0039908002FE00126EE
:101D8800754000956546029F009E651BB74200D0CE
:101D98002EE1002D00DC76E06746002F21D11F00E0
:101DA800174300D122E16F1E012D15D182188242FE
:101DB8008041C91840420918012410000B0200D4C0
:101DC80096E00224994B42080B40012101400A4346
:101DD800D807104359088BE0924EB54222D1914C56
:101DE80086E0904EB44200D182E00026B446013627
:101DF800382D1ADC80262F00360433431F2F31DCA0
:101E080020251E00ED1BAE40B44616000095FE408E
:101E180065462E43009DFB40AA40551EAA41164325
:101E28009C4602E00126382FE8DD361886428041BC
:101E380061444042091830000B0259D50026794BFD
:101E48000134B4469C42BDD1794B24051C406346FD
:101E58001B031B0B1C43029B3000DB071C432100A8
:101E680005B0F0BD3D001E00203DEE400025202FAE
:101E780003D04035ED1BAB401D0015436B1E9D4143
:101E880000232E43CCE7002D6AD065462D1B002C7D
:101E98001ED000240126382D12DC8024240421437E
:101EA8001F2D4BDC20240F000600641BA040A74018
:101EB800EE4037430600E940701E86410C003E4361
:101EC800B01890429241E4185242A1186446B3E710
:101ED8002C000D00054329D0651E012C23D1801844
:101EE80090429241C918524289180B0200D568E7FE
:101EF800430709D00F230340042B05D0031D834259
:101F080080414042091818000B0200D4E4E1002681
:101F1800444B0134B4469C4296D0444BC0080B4015
:101F28005E070643CDE13F4EB44202D119001000CE
:101F3800DEE7382DB4DD00240126C1E72C000E00B1
:101F4800203CE64034000026202D03D04036761B86
:101F5800B1400E000643711E8E4126430024AFE7B0
:101F6800344E651C354233D10D000543002C11D188
:101F7800002DDBD01D001543BAD082188242804163
:101F8800C9184042091810000B02B1D5274B01347B
:101F98001940ADE7002D00D19BE11C001443002C33
:101FA80000D11CE74C07C00820438024C90824033B
:101FB800214208D0DD08254205D129005B07D00859
:101FC8001843009B0293CB00410F1943C00006E75A
:101FD800144CA54200D196E1821882428041CB1868
:101FE80040421B18D8075208104359082C007FE7B5
:101FF800002D76DD6646002E2ED11F001743F5D042
:102008006F1E012D18D1821A90428041C91A404290
:10201800091A012410000B0200D469E749020600DE
:102028004D0A02E1FF07000001F8FFFFFFFF7FFFF5
:102038000000F07FFE070000B74EB54200D1CEE6A3
:102048000126382F15DD861B6346B0428041C91A28
:102058004042091A3000DEE7AF4EB44200D147E7EC
:102068000026B4460136382DEDDC80262F003604D4
:1020780033431F2F11DC20251E00ED1BAE40B44654
:1020880016000095FE4065462E43009DFB40AA4081
:10209800551EAA4116439C46D5E73D001E00203D2B
:1020A800EE400025202F03D04035ED1BAB401D002E
:1020B80015436B1E9D4100232E43ECE7002E67D08D
:1020C800002C25D019001000934C029510E7002E23
:1020D8005ED0002C1FD003998F4C0800009B029300
:1020E80006E7002D54D065462D1B002C1FD1009CFF
:1020F80002942C000D00054300D117E7651E012C42
:102108000CD1101A82429241591A5242891A82E716
:1021180002956446EEE7009C0294FAE77E4EB442CC
:1021280000D103E7382D09DD0021012614E0382D00
:102138002BDC802424042143009C02941F2D13DCF3
:1021480020240F00641B0600A040A740EE40441E58
:10215800A041E9403E430643901B82429241591AEE
:1021680052426446891A56E72C000E00203CE6408D
:102178000024202D03D04034641BA1400C000443EC
:10218800611E8C4100212643E6E700990291CBE7C6
:10219800624E651C354238D11D001543AC460D0012
:1021A8000543002C25D1002D08D161462600029454
:1021B800002900D148E6190010008FE76546002D78
:1021C80000D195E6861AB042BF41CD1A7F42ED1B79
:1021D8002F0206D5101A82429241591A5242891A80
:1021E8007CE733002B439C4600D18FE02900300068
:1021F8007EE6002D07D1614600297AD01900009BA0
:1022080010000293EBE56446C9E6861AB042BF4166
:10221800CD1A7F42ED1B2F0228D5161AB2429241E1
:102228005B1A52429D1A009B0293002D26D028006B
:10223800FEF790F80300083B20223100D21A9D4097
:10224800D140294335009D409C423DDC1A1B013298
:10225800202308009B1A2C009D409840D4406B1EF8
:102268009D41D14020432843002441E633002B43BD
:102278009C46DAD11E001C000293E5E53000FEF70B
:1022880069F8030018331F2BD6DD31000838814068
:102298009C4212DC1B1B5A1C1F2AD9DD0C001F3B59
:1022A800DC402800202A03D040239B1A99400800CC
:1022B800431E984100212043D6E7E41A184B0B40EF
:1022C8005E07DB089C46BFE5E41A154B2800194059
:1022D8000EE61900100082E54B07C00803439C4630
:1022E8000D4B6646C9089C4213D10E4304D1B4462F
:1022F800AAE502918021090380231B030B4366464C
:10230800054C9C46A0E50026034CF0E72600029405
:102318009AE58C4698E5C046FF070000FE070000D6
:10232800FFFF7FFFF0B51D004B005B0D9C460B4F78
:1023380014002B030A036E00120B1B0B760DBC4511
:1023480003D102430120002A06D10020BE4203D156
:1023580023431800431E9841F0BDC046FF07000004
:102368000B0070B5114E0C0349000200240B00202D
:10237800490DDD0FB14204DD0D48814202DD0D4BF0
:10238800E81870BD8020400320430B4C641A1F2CB2
:1023980008DC0A4EE240891988401043002DF0D02D
:1023A8004042EEE7064B5B1AD840F7E7FE03000011
:1023B8001D040000FFFFFF7F33040000EDFBFFFF5B
:1023C8001304000070B5030002000600051E11D0BA
:1023D800C21785185540C40F2800FDF7BBFF0D4AEA
:1023E800121A0A280FDC0B232E001B1A1530DE40A8
:1023F800854023003603360B12053243DB071A43A8
:102408002800110070BD0B38854023002E000025E0
:10241800F0E7C0461E04000010B503000400021EC9
:102428000CD0FDF797FF0B4A121A0A280DDC0B2374
:1024380021001B1AD94015300B0084401B031B0BCD
:1024480012051A432000110010BD23000B388340E9
:102458000024F3E71E04000002B47146490849004D
:10246800095C49008E4402BC7047C04603B47146FB
:10247800490840004900095A49008E4403BC704786
:10248800D0400B00D1409C46203AD34018435242DA
:1024980063469340184370479140030090409C4620
:1024A800203A9340194352426346D3401943704738
:1024B80010B5002903D1FDF74DFF203002E00800D8
:1024C800FDF748FF10BDC046F7B5040C0D0091B2EA
:1024D8000F0061438C460600019383B2100C5F43E2
:1024E800444358433B0C60441B18994202D980214D
:1024F80049026418019955437143180C04191B04C7
:10250800BFB24919D819091903B0F0BDF0B50600D2
:102518000F0015001C0085B08B4263D801D18242A0
:1025280060D821002800FFF7C3FF39000090300071
:10253800FFF7BEFF009B21001B1A1A002800039317
:10254800FFF7AAFF00900191B94245D801D1B042E6
:1025580042D8009B019C01200021039AF61AA7414A
:10256800FFF79AFF04000D00039B002B2BD0019B63
:10257800009ADB0750081843019B5908039B9C46A7
:10258800B9422CD801D1B04229D832003B00121AE6
:102598008B41012692185B410027B6185F41012341
:1025A8005B429C446346002BEAD130003900039A11
:1025B800FFF766FF039AA4197D4106000F00FFF795
:1025C8006BFF241A8D410A9B002B01D01E605F60AF
:1025D8002000290005B0F0BD00240025C4E7B61985
:1025E8007F41DCE700240025EDE7F7B517001E0062
:1025F80004000D0000F011F802000B00009001919A
:1026080038003100FFF760FF241A8D41089B0098BD
:1026180001991C605D6003B0F0BDF0B504000D00C9
:102628001000190085B0002D11DB002B00DA82E0C4
:1026380026002F0014001D00BD4204D800D080E001
:10264800B44200D87DE00020002105B0F0BD002391
:102658006242AB41002968DB16001F0004000D0030
:10266800BD4278D801D1B44275D801235B42290014
:1026780020000393FFF71CFF390002903000FFF79A
:1026880017FF029B29001B1A1A0020000293FFF76C
:1026980003FF04000D00B94255D801D1B04252D809
:1026A80001200021029AFFF7F7FE361BAF41009088
:1026B8000191029B002B2CD0EB0760081843029B6A
:1026C80069089C4601240025B94241D801D1B0428D
:1026D8003ED832003B00121A8B4192185B41121906
:1026E8006B4116001F0001235B429C446346002B8C
:1026F800EAD1009C019D029A30003900FFF7C0FE24
:10270800029AFFF7C9FEA4197D41241A8D4100944D
:10271800019500980199039B002B00D195E70300D0
:102728000C0000215842A1418FE716001F00002528
:1027380044428D4180E726002F00002544428D4108
:102748008EE7002393E70022002300920193B0E76D
:10275800B6197F41C7E700200021E0E730B583B014
:1027680022480AF0A0FA002804D1214809F0EBF821
:1027780003B030BD1F4809F0E6F802E01E4809F032
:10278800E2F81A488368DB68402198470028F5DB9F
:10279800164883681B696A460D219847002820DB84
:1027A800019A0099154809F0CEF80098FFF70AFE3B
:1027B80004000D000198FFF705FE0022104BFEF7FC
:1027C800C1FC02000B0020002900FEF7CBF9020033
:1027D8000B000C4803F016FE0B4800210AF09EFB84
:1027E800CFE70A4809F0AFF8CBE7C04684D000101D
:1027F80050D300106CD3001084D30010C8D300103D
:1028080080842E41E4D30010204E0000A8D300108D
:1028180010B5024B1B68984710BDC04698060020AB
:10282800014B18607047C0469806002010B582B06A
:1028380002000B00034C00210091200000F0C0F9B9
:1028480002B010BD1928001010B50400026800205D
:1028580005E083001B185B000132581830381178E6
:10286800024B5B5C5B07F4D4226010BDDDDB00101B
:1028780010B50400080001221EE0237804210B4350
:102888002370002A16D0013014E0237808210B4366
:102898002370F6E7237810210B432370F1E72378A0
:1028A80020210B432370ECE7237840210B4323704E
:1028B800E7E70022002A08D00378203BD9B2102984
:1028C800F7D88B000649CB589F46227844231340FB
:1028D800442B00D010BD1300402293432370F9E726
:1028E800F8D3001010B504000B784C3BDAB22E2A4E
:1028F8004DD89300294AD3589F46481C4B78682BDB
:1029080006D063787822934310221343637021E042
:10291800637878229343082213436370881C19E074
:10292800481C4B786C2B06D0637878229343182286
:10293800134363700EE06378782293432022134395
:102948006370881C06E04378782293432822134357
:102958004370481C10BD43787822934330221343B8
:102968004370481CF6E74378782293433822134390
:102978004370481CEEE74378782293434022134380
:102988004370481C2378022213432370E2E76378DC
:102998007822934363700800DCE7C0463CD40010FB
:1029A80070B5020008000B78D3700130782B15D869
:1029B8006E2B28D2692B11D8582B15D31C00583CE4
:1029C800E4B20121A140E2242402214213D13A4C6D
:1029D800214255D18424A402214239D113780121FE
:1029E8000B431370002341E0412B04D0F6D3453B41
:1029F800DBB2022BF2D8937807218B4304210B43D7
:102A08009370012332E019006E39C9B201258D4057
:102A18002A4C2C40611E8C41E6B2002C30D1242176
:102A280029404B1E9941CBB2002939D101310C0004
:102A38002C402942D2D091780725A9430325294360
:102A4800917055787821294040290FD123000DE055
:102A580091780724A1430124214391705478782167
:102A68002140402913D0632B16D000231478A107E6
:102A7800C90F0B435B0002218C431C43147070BDCB
:102A880091780724A143022421439170E6E7147842
:102A980001252C431470E6E74B1E9941CBB2E5E7BC
:102AA80091780724A1430324214391705178782415
:102AB8000C42DBD13300D9E7010800008204000092
:102AC800F0B5DE4657464E464546E0B583B00700AA
:102AD8000C0090469A460C9DD078284B1B5C03222C
:102AE8001A40934608F0D0FF060013E05B46012B1E
:102AF8001FD0D2B25732D2B22A7032000023380027
:102B08002100FDF769FCA1451AD816D0554517D9FB
:102B180007000C0001960023994632003800210076
:102B2800FDF75AFC013D092AE0D8D2B23032D2B2C0
:102B3800E2E7D2B23732D2B2DEE7019BBB42E5D937
:102B480043461B789B0603D5082E09D0102E0ED0BD
:102B5800280003B0F0BCBB46B246A946A046F0BD6B
:102B680043469B780822134342469370F0E7434656
:102B78009B781022134342469370E9E7DDDB00108F
:102B880043785B06180F002B04DB83000B48C358FF
:102B98009F460A6070470A70FCE70A80FAE70A60F5
:102BA800F8E7D3170A604B60F4E7D3170A604B6065
:102BB800F0E70A60EEE70A60ECE7C046F8D40010D8
:102BC800F0B5DE4657464E464546E0B591B005009D
:102BD80089461600039300243078002800D16AE261
:102BE800252807D04946A847002800DA64E20134BE
:102BF8000136F1E704AF18220021380003F09EFBEC
:102C0800310006A808F01EFF02907B7ADB0741D549
:102C1800039B1A1D03921F68002F34DB04AB5B7AF9
:102C28005A074AD5039B1A1D03921B689A46002B24
:102C38003ADB04AB0022079208929A7A5207520FA5
:102C48005B7A5B061B0F1900012A3FD0022A00D1CC
:102C580089E0042A00D1E0E0032A00D1F7E004ABC0
:102C68001A7A0323190011408B46134200D0F4E06E
:102C780004ABDB7A253BD9B2532900D988E18B0014
:102C8800C149CB589F4604AA137A04210B431372F7
:102C98007F42C3E704AB1B7A5BB2002B02DB012740
:102CA8007F42BBE7079FB9E704AA537A02218B4307
:102CB800537201235B429A46BBE79B0702D5089BE8
:102CC8009A46B6E701235B429A46B2E7052B37D00E
:102CD8000FD8032B2CD0042B18D1039B07330722C2
:102CE80093431A00083203921A685B6804920593AA
:102CF80013E00A330F221340012B07D8039B1A1D38
:102D080003921B68DA170493059206E0039B1A1DC9
:102D180003921B68DA170493059201291CD0022933
:102D28009DD104AB00215A5ED1170492059196E714
:102D3800039B1A1D03921B68DA1704930592ECE7AC
:102D4800039B0733072293431A00083203921A6839
:102D58005B6804920593E0E704AB00229A56D1170A
:102D6800049205917BE7052B44D00FD8032B2DD077
:102D7800042B18D1039B0733072293431A00083208
:102D880003921A685B680492059313E00A330F22D2
:102D98001340012B07D8039B1A1D03921B68049349
:102DA8000023059306E0039B1A1D03921B680493F6
:102DB80000230593012929D0022900D04FE7049B5D
:102DC8001B041B0C04930023059348E704ABDB7A30
:102DD800632B07D0039B1A1D03921B6804930023DF
:102DE8000593E7E7039B1A1D03921B6804930023CE
:102DF8000593DFE7039B0733072293431A00083242
:102E080003921A685B6804920593D3E7049BFF2238
:102E1800134004930023059321E7082B0BD0039B51
:102E28000733072293431A00083203921A685B6833
:102E38000492059313E7039B0733033293431A0065
:102E4800083203921A685B680492059307E7039BAC
:102E58001A1D03921B68049301E7029F3B0032008E
:102E68004946280008F025FE002800DA24E1241845
:102E78003E00B1E649462520A847002800DA1BE1B4
:102E880001345E463E236B449A460023984685E00B
:102E9800049B98465346002B06DA404603F0D6FAC0
:102EA800404482465E4679E05146404603F0FCFACB
:102EB800F6E70498002807D15E46344B9A46052366
:102EC8005B425344984669E004AE3E236B4400934A
:102ED8000AAB06AA0021FFF7F3FD8046B37A102259
:102EE8001343B3727823F3725E462BE0049B0AAA5D
:102EF80013705E4629236B449A4690464EE01307AA
:102F080006D410231E001640134202D0202600E0EB
:102F18002B26049A059B002B02DB0492059307E0FD
:102F2800002150429941049005912D2600E05E460B
:102F3800049805993E236B4400930AAB06AAFFF751
:102F4800BFFD80465346002B54DB3E236B4442466C
:102F58009B1A04A90A7A402082430A729A454DD9DD
:102F68005246D31A07933E236B449A4616E00499B7
:102F7800220006A8FFF704FE5E463E236B449A46ED
:102F8800002398460AE0C04620D500101DD5001041
:102F98005E463E236B449A46002398464346002BE0
:102FA80000D186E053464246991A002E00D00131DE
:102FB80004AB9A7AD30625D50231079B5B185206D3
:102FC80001D5089A9B18002F31DDFF1A04AB1B7A34
:102FD8005B072CD404AB1B7A5B0617D5002E18D0E0
:102FE80049463000A847002866DB01345E46302396
:102FF8009B4610E03E236B449A46CFE73E236B4442
:103008009A46CBE71307D8D50131D6E720239B464C
:1030180001E030239B463B005F1E002B07DD49463D
:103028005846A847002847DB01343B00F4E7002E48
:1030380005D049463000A84700283DDB013404ABE1
:103048009B7ADA06D20F1B07DB0F134305D04946DC
:103058003020A84700282FDB013404AB9B7ADB061D
:1030680006D504ABD87A4946A847002824DB0134A2
:10307800079B5E1E002B07DD49463020A847002825
:103088001ADB01343300F4E7534642464946280028
:1030980008F00FFD00280FDB2418002F07DD494634
:1030A8002020A847002807DB0134013FF5E7029EEE
:1030B80092E5029E90E5200011B0F0BCBB46B246F6
:1030C800A946A046F0BDC04630BFFDE7054B5A698A
:1030D8009B689A4205D0044A516880235B050B43DC
:1030E80053607047F40A002000ED00E070B50C0052
:1030F80083690F4A9A4202D80E4A934207D30E4A6E
:1031080093420DD30D4A934201D3002509E0023BB7
:103118001A880B4B9A4201D0002502E0056800E0AE
:103128000025012108F0F6FC2070280070BDC0467B
:10313800A8010010D0CF00100000002000000020DF
:1031480002DF0000F0B58BB00C00204B5968C905B0
:10315800C90D62B6BFF36F8F130E1B06FF252D0630
:10316800AB4215D10C231340082B14D012070CD5F1
:10317800002727256D442A00200008F0CDFC060012
:103188002B78002B0AD00BB0F0BD04000127F0E724
:1031980000270024EDE700270024EAE72022210089
:1031A80001A803F083F8002F06D0089BDA0507D1A1
:1031B800074A1343089303E0089B5B0A5B020893E2
:1031C80001A9300008F091FCDDE7C04600ED00E001
:1031D800FF010000024A536908218B43536170477D
:1031E80000ED00E0EFF30880EFF3098101B57246C6
:1031F800FFF7A8FF01BDC04672B607480749401847
:1032080080F30988EFF314800221084380F31488BF
:10321800BFF36F8F00F0A2F8680B002000080000D1
:1032280010B50B4B9B68834202D002F091FA10BD97
:10323800EFF30583002BF8D0064B5968802252051E
:103248000A435A605A6A04490A405A62EDE7C0467E
:10325800F40A002000ED00E0FF7FFFFF13498A68B1
:1032680013481044EFF3098CF0C043464C465546CA
:103278005E466746F8C072B60E4F0F4E4A698A60BE
:103288003E60906E00239366002800D162B6084C19
:1032980010191030F8C89846A146AA46B346BC464D
:1032A8002438F0C88CF3098870470000F40A00201D
:1032B8003000000004ED00E0000000080420714622
:1032C800014202D0EFF3098001D1EFF30880816950
:1032D800023909780229FFD001B5724608F00EFCC0
:1032E80001BDC04670B5002811DB8308134DC033FB
:1032F8009B005C5903221040C000FC321600864037
:10330800B44389010A40824022435A5170BD0F23B9
:103318000340083B9B0806339B00094A94466344D4
:103328005C6803221040C000FC3215008540AC43A5
:1033380089010A40824022435A60E7E700E100E041
:1033480000ED00E043B2000605D41F221A40012315
:103358009340014A1360704700E100E010B5084B44
:10336800FF229343074A9360BFF34F8FBFF36F8FDA
:1033780001F06EFC02F036FB08F0F1FB01F0C6FC30
:103388000001001000ED00E010B5203A09499161F4
:103398000124A14391611360029B5360039B9360D6
:1033A800049BD36080235B04D3610265002383669A
:1033B80010BDC04667B9001070B50E001500074B68
:1033C80098602C1C86F309880020054B9847201C20
:1033D800002100220023034C2047C046F40A0020A5
:1033E8004DBB001067B90010014B10221A617047DD
:1033F80000ED00E070B5002811DB8308134DC033E1
:103408009B005C5903221040C000FC321600864025
:10341800B44389010A40824022435A5170BD0F23A8
:103428000340083B9B0806339B00094A94466344C3
:103438005C6803221040C000FC3215008540AC4394
:1034480089010A40824022435A60E7E700E100E030
:1034580000ED00E010B5EFF30582103A044BD200FE
:10346800D0589B185B689847FFF730FE10BDC046E0
:1034780098D00010014B18607047C046A006002085
:10348800F8B507000E00002400E00134B44209DA60
:103498003D19054B1B68984728700A2801D00D284C
:1034A800F3D101342000F8BD9C060020F8B50500D2
:1034B8000F00002404E03078084B1B68984701345B
:1034C800BC4208DA2E192B5D0A2BF4D1034B1B687A
:1034D8000D209847EFE73800F8BDC046A006002049
:1034E8000300074A1268074950189B18064A521ADF
:1034F800934202D2024A1360704701204042FBE720
:10350800200A0020681800200020042010B5044874
:1035180008F019FA62B6BFF36F8F0423181C02DF94
:1035280070D6001080235B0409480360094880694D
:10353800184206D10A60074B9B69DB0104D40020BE
:10354800704716204042FBE716204042F8E7C04685
:1035580018300640000006404068CBB20B2B4FD80D
:103568008B002C4AD3589F460C20704702684B00AA
:103578005B189B009A5852090F231340264AD056CD
:10358800F3E74B005B189B00244A944663441A688F
:1035980052090F2111401B680322100018401A42DB
:1035A80031D0022831D01E4B5856DEE74B005B184D
:1035B8009B001A4A944663441A6852090F21114025
:1035C8001B689B0723D0174B5856CEE74B005B1858
:1035D8009B00124A944663441A6852090F23134009
:1035E800114AD056C1E74B005B189B000B4A944622
:1035F80063441A6852090F2313400C4AD056B4E7A3
:1036080001204042B1E70E20AFE70C20ADE70420CF
:10361800ABE7C0467CD6001040D7001000800040C1
:103628003CD7001034D700102CD7001024D7001036
:1036380042680B1FDBB2012B22D9CBB20E2B03D869
:103648008B001448C3589F4600201AE012684B00AC
:103658005B189B009B581B0516D4002011E00A2913
:1036680006D0D3685B6829221A420FD0002008E0F0
:103678009368F7E753685B68DB0409D4002000E02F
:10368800012070470120FCE70120FAE70120F8E754
:103698000120F6E7ACD60010F8B504000D00476825
:1036A8000669FFF7C5FF002871D0EBB20E2B03D8CF
:1036B800AB00394AD3589F46002069E03E6829008C
:1036C8002000FFF749FF01002000FFF7E5FF041C79
:1036D8006B005A199200B21857683F0A5368FF20C6
:1036E8001840FDF703FA2D49FDF70AF8051C3800C4
:1036F800FDF7FCF9291CFCF78FFE011C201CFCF7C8
:10370800FFFF45E029002000FFF726FF0100200009
:10371800FFF7C2FF3CE00A2D2FD0FE6829002000E9
:10372800FFF71AFF01002000FFF7B6FF041CB0687E
:10373800FDF7DCF9211CFDF7C5F8041C33683F20B0
:103748001840FDF7D3F9011C201CFCF7D9FF051C14
:10375800F068000C07242040FDF7C8F9011C281C5C
:10376800FCF7CEFF051CF068000B2040FDF7BEF902
:10377800011C281CFCF7C4FF0AE0BE68CEE73068CD
:10378800FDF7B4F904E07068FDF7B0F900E0002037
:10379800F8BD0348FCE7C046E8D6001000007F43A8
:1037A800001B374B70B545684CB2200008F01EFA74
:1037B800002821DB0A2C0FD00B2C15D02B686200B7
:1037C800121992009B188022920194466344802229
:1037D80012011A60002006E0AB68094A9446634467
:1037E8002D221A60002070BDEB68054A9446634498
:1037F8002D221A600020F6E716204042F3E7C04663
:103808000430000070B545684CB2200008F0EEF9AD
:10381800002821DB0A2C0FD00B2C15D02B68620056
:10382800121992009B18C022920194466344802288
:1038380012011A60002006E0AB68094A9446634406
:103848002D221A60002070BDEB68054A9446634437
:103858002D221A600020F6E716204042F3E7C04602
:1038680004200000F0B5DE4657464E464546E0B512
:103878008FB080464668376833699946B3680C93B9
:10388800F3680D9303AA6C4B31CB31C2110015CBF1
:1038980015C105CB05C11B880B80684B684A1A60A7
:1038A800684B694A1A60694B1B68674C9C43FAD19C
:1038B8000C2009F0CBF90023BB6701F021F8644A1A
:1038C800D36B03218B43D363614B5B6C012BFBD11F
:1038D8005F4A136B03218B4313635D4B9B6B012B77
:1038E800FBD1250017E02B01F3189969DA69A81CA8
:1038F800000183599B463018406884465548424326
:10390800A80082460CA853461858634600935B46A5
:1039180000F064FF0135012DE5D9112103A808F055
:10392800B9F900E00134102C1CD803A962005356E1
:10393800885C0928F6D81A01B218916BD26B043347
:103948001D0173195B68AD59009500F013FF00283D
:10395800E8D1162040420FB0F0BCBB46B246A9469B
:10396800A046F0BDC0239B01FA1880231B011360F9
:10397800394ABA181360394ABA181360384A944653
:1039880067443B60D823F358AA2212011A434946D8
:1039980014314046FFF7C6FD0028DCDBDC23F35872
:1039A800304A1A4349464046FFF7BCFD0028D2DB9F
:1039B800E023F258002A06D01F2A35D8AA231B0173
:1039C8009C46624400E0284A494610314046FFF7C9
:1039D800A9FD0028BFDBE423F3581B041B0C234A72
:1039E8001A434B46191D4046FFF79CFD0028B2DBE1
:1039F800E423F3581B0C1D4A1A4349460831404634
:103A0800FFF790FD0028A6DB0E4B194A1A600F4BF2
:103A18001B68DB43DB01FAD17069002108F016F955
:103A2800002804DB002096E7AA221201CCE7831CB9
:103A380091D100208FE7C04638D2001000E0004046
:103A4800BFCDFBFE00F00040FE7F3C0008C00040F8
:103A580000800040001BB7000C3000001830000048
:103A68002430000000B0FA00A10A00000000969679
:103A7800FFFFFF0110B504000A2806D0E1B206488E
:103A880083685B689847200010BD034883685B68BB
:103A98000D219847F2E7C04648D0001010B5044CF5
:103AA8002000FFF7E7FC2000FEF7BAFE10BDC04675
:103AB8007D3A001010B5064809F0F5F8002803D043
:103AC800FFF7ECFF002010BD13204042FBE7C04683
:103AD80048D0001070B505000669002400E00134E4
:103AE8001D2C15D8E30808339B000A4A9A58072367
:103AF80023409B00DA401207F1D00F21200000F08C
:103B080099FF0122A240301D290008F036F9E6E7A6
:103B180070BDC046004101400E4B984210D007D9F5
:103B28000D4B984212D00D4B984211D10A2006E055
:103B38000B4B984206D00B4B984205D10420704796
:103B48000620FCE70220FAE70020F8E70820F6E75D
:103B58000020F4E740420F0040E13300404B4C00A6
:103B6800A0860100801A060070B5056943681A68C6
:103B78000023D06E0124A043D0661363136C686AD7
:103B8800C30653D54023234320263343044203D09E
:103B98000F342343083C23434408072020400328CC
:103BA80026D8022834D201281FD1E88E9061A88E29
:103BB8005061062083430438034313600023936352
:103BC800D36353681068C0072BD58905890D9B0AF4
:103BD8009B020B43696AC80604D5C90723D580210F
:103BE80049010B435360002070BD16204042FBE79B
:103BF80004280AD13B20285C00281AD0E88E90625D
:103C0800A88E506206200343D7E716204042EBE710
:103C1800E88E1062A88ED0610620834302380343E1
:103C2800CBE79160D6E704490B40DBE7162040421A
:103C3800DAE716204042D7E7FFEFFFFF70B50569C6
:103C4800426814686962480807230340032B5FD061
:103C58001ED8012B41D0022B17D10C20135E6D33D7
:103C68002000A030066807369E4201D30368083357
:103C7800EB860E23D35E5D33026805329A4201D388
:103C880003680633AB86002022E0162040421FE07E
:103C9800042B1BD13B23EB5C002B51D00C20135E73
:103CA8006D332000A430066807369E4201D30368AE
:103CB8000833EB860E23D35E5D33026805329A42E1
:103CC80001D303680633AB86002001E0162040428A
:103CD800236C10231943696270BD0C20135E1A48C7
:103CE800844663442000A030066807369E4201D30C
:103CF80003680833EB860E23D35EF533FF3302687F
:103D080005329A4201D303680633AB860020DFE709
:103D18000C20135E1F332000A030066807369E4231
:103D280001D303680833EB860E23D35E1F33026882
:103D380005329A4201D303680633AB860020C7E7F1
:103D480016204042C4E7C04671020000F0B5DE46C6
:103D580057464E46C0B582B081460D00161E0193E7
:103D6800046943681A68924607D10027380002B0F0
:103D7800E0BCBB46B246A946F0BD10229346A34418
:103D880001225242D317584600F0EAFF071EEDD130
:103D98005246136FDB0779D43823E35C1B0702D53F
:103DA80010277F4274E03822A35C08210B43DBB262
:103DB800A35401994846FFF7D7FE071E68D153461A
:103DC800DB6E012213435246D3663AE03A20235C65
:103DD8002A68A2626968E1622A7A22540020206374
:103DE8005340DB0703D504231A433A23E25438220D
:103DF800A35C03208343A3543A23E35CDB072BD45F
:103E0800A35C01210B43DBB2A35439230022E25403
:103E180053461B68DB0728D5214B52461363FA2209
:103E280092000023200001F0C5F8071E22D1382394
:103E3800E35C5B0724D4E36A002B24D10C35013EF4
:103E4800F6B2002E24D06B68002BBFD12B68002B54
:103E5800BCD001236B60B9E73822A35C022003437E
:103E6800DBB2A3543923E154D2E798239B0052468E
:103E78001363D4E700235246136353461B6C07E0D1
:103E880005277F4204E005277F4201E010277F4293
:103E980038230022E254584600F0E6FF66E7C046A1
:103EA8005F020000F8B505004768066978690028D0
:103EB80004D0B96908F09CF8041E05D138690021BE
:103EC80008F09DF9041E01D02000F8BD01225242DD
:103ED8000021300008F047FF3000103008F03CFFA8
:103EE8006B681B68DA6E01218A43DA661A00FC32B5
:103EF8001168134A91421DD11A6806231340062BF4
:103F080014D03B230022F2547B6828009847B868F5
:103F1800FFF702FE1021014371622800FFF78EFEB1
:103F280000280AD138230022F254CDE73533012284
:103F3800F254E9E705246442C6E705246442C3E76E
:103F48004001574470B504000A00016C49102B4B1E
:103F58009C46614488104043C3121E2565575D4343
:103F6800AD101C26A35F4B435B005B199B101A2600
:103F7800A55F2D045D1940131823E3565B014343E5
:103F8800DB101626A05F414349105B189B14802163
:103F980009028C466344A18A5943C91380235B03F1
:103FA8009B1A2D135B1B164858438023DB05984248
:103FB80020DBFCF73BF940002223E25EC3105B43A1
:103FC8005B1353431B1382102025615F5143491330
:103FD80002121500554355432422A25C6A43521429
:103FE8005B189B181F22A256D2019B181B11181888
:103FF800206370BD4000FCF719F9DDE70006FFFFFC
:10400800350C0000F0B5C64600B50500036C9C00F1
:10401800E4188034241203881B01CF1A0420285680
:1040280060436421FCF702F940103F1A6B889846F8
:104038000520285660436421FCF7F8F8060006209E
:10404800285660436421FCF7F1F86043801164212D
:10405800FCF7ECF836188023DB019C46664443469F
:104068005E43B6127E43EF79FF010820285660436D
:104078006421FCF7DBF8C0190011B3135B439B12F2
:1040880043435B10F618B61273019B1B9B009B19E8
:10409800DB001B13054A934203DC002B02DA0023E2
:1040A80000E0024B6B6380BCB846F0BDA0860100FF
:1040B800F0B5D6464F464646C0B580468A46914634
:1040C8002723C3561C00DB171D00A20F9F001743B0
:1040D800A60036196F411C480021801979411B4BF5
:1040E800524692009246D2580023FEF7EDF90C048E
:1040F800020C22430B1400274946CE03FF24240652
:1041080001256D42A4197D41A4185D41104950460E
:1041180040580021FEF7D8F9CB05460A1E434F1236
:10412800E90762080A436B1092197B4110001900D5
:1041380022002B00FCF72CF943469863E0BCBA46F2
:10414800B146A846F0BDC0463C05000024D9001081
:10415800E4D80010F8B504000E00C8235B009942AB
:1041680000D91E000C22A25693009B18980018181C
:10417800FA218900FCF75AF805020927E757C423F2
:104188009B009C4667440A23E05E174B9C466044AC
:1041980070431421FCF74AF8C8239B039C466044EB
:1041A8000A21FCF743F87843C30F18184010401948
:1041B8002523E15C0431FCF739F82623E3569901FD
:1041C800C9184900C91880235B029C466144FCF762
:1041D8002DF8FA3803011818400032306421FCF732
:1041E80025F8C0B2F8BDC0469959020070B5140050
:1041F8000569102933D019D80D2922D00E2912D1DA
:10420800286BFA218900FBF7CBFF2060286BFA2185
:104218008900FCF701F84B015B1A9B005B18DB0077
:10422800636000200CE08620404209E01E2905D189
:10423800AB6B136000235360002001E086204042EE
:1042480070BDE86A6421FBF7F1FF2060E86A642129
:10425800FCF736F80B4B4B4363600020F0E7686BC4
:10426800FA218900FBF79CFF2060686BFA2189001E
:10427800FBF7D2FF4B015B1A9B005B18DB00636006
:104288000020DDE71027000010B5040040688368AF
:104298001B689847002803DB0249200008F0D7F87C
:1042A80010BDC046E9C6001010B5002910D04368FB
:1042B80019680C6B8023DB0123430B63002A0ED0A3
:1042C80043681A68116B80231B020B43136310BDEC
:1042D800436819680B6B054C23400B63EEE7436892
:1042E8001A68136B02490B401363F0E7FFBFFFFF27
:1042F800FF7FFFFF70B504000800890E80011201DE
:104308000023FCF769F805000E0040204042C11761
:1043180002000B0052197341002B16D112D0B106BE
:10432800AB090B43616809684B62636819683F23EE
:104338002B408B62BFF35F8F63681B68DA6ADA62AF
:10434800002070BD02498A42E9D916204042F8E7A8
:1043580080FF3F0043681A68936B02490B409363E0
:104368007047C0467FF8FFFF70B5040045680669CE
:10437800A868002804D0E96808F091FA002838D124
:104388002869002809D0696983681B6898472869E3
:10439800696932000C3208F08CFA337A002B29D084
:1043A80063681B6800229A6363681B68264A5A641C
:1043B800337A002B14D163681B6800229A64BFF318
:1043C8006F8F63681A68136B02218B4313636368EA
:1043D8001A68116BC0239B000B431363BFF36F8FE5
:1043E800AB692000984701233374337A002B26D019
:1043F800002070BD6868002108F019FC0028F8D179
:104408002B6A002B00D09847200008F063FA2000A0
:1044180008F06EFAEB69002B04D0F1682000984789
:104428000028E6D100223100200008F067FB63680D
:104438001B6810225A63200008F053FAB0E72000E6
:1044480008F041FA0020D4E7FF0700000F4B9A68F4
:1044580019689B68002A01D10D4A1268002B01D106
:104468000B4B1B68C90301D49A4207D209490A6851
:104478000748006812180A60044A1268044A10685B
:10448800C01A044B1B68C0187047C04610E000E013
:10449800C80A0020C40A00200A4A136A1B021B0A21
:1044A8001362094B094A1A60094B00221A60094B2A
:1044B800094959609A601A6807210A431A6000205E
:1044C8007047C04600ED00E0C80A0020D430000064
:1044D800C40A002010E000E0D330000070B5FFF7F8
:1044E800B5FF104A1168104B0C0000251868596870
:1044F8000019694118605960002313600B4E346835
:104508007568001B0A49FBF74BFE094941430A003D
:104518000023A4185D413460756001F04DFBFEF77F
:10452800D5FD70BDC40A0020A8080020A0080020FE
:10453800D4300000F0B5D6464F464646C0B582B0E6
:1045480000294AD0431C3ED0414B1D6801284ADD52
:10455800404B984200DD1800441EEFF3108372B6FA
:104568009846FFF773FF3C4B9B6899463B4902000E
:1045780000230E684F68B6185F41009601970E60D9
:104588004F60374B00221A60364B1B689A46F01A68
:104598002BD4354F7C430019344B9C46604439007A
:1045A800FBF7FEFD47435346009A9E1AF7193B0056
:1045B8008022D200974200D213002D4A974239D95F
:1045C800234B1A6015E0244A136801218B431360BA
:1045D8001F4BFF2212061A6026E01D4B1D68431C64
:1045E800B4D12448B4E70024B7E7194B8022D2009D
:1045F8001A60194B9968164A1268013A5A600022E3
:104608009A60894519D26D1A4D4428000021134C2F
:104618002268636812184B41226063604346002B8E
:1046280002D162B6BFF36F8F02B0E0BCBA46B146A2
:10463800A846F0BD064A1360DBE74B465C1A002526
:1046480006490A684B6812196B410A604B60E5E736
:10465800C80A00203E05000010E000E0A80800207D
:10466800C40A0020A0080020D4300000D330000085
:1046780084C6FF003D05000070B5EFF3108572B6E3
:10468800084B1C68084B1B68E41AFFF7DFFE00198B
:10469800002D02D162B6BFF36F8F0449FBF780FD8E
:1046A80070BDC046A8080020A0080020D430000033
:1046B800F8B5D646474680B506000D00170098465F
:1046C80044002418A400294B9C4664446368089A53
:1046D800934200D26260331FDBB29A46012B2ED977
:1046E80080221201C0239B01E3181A60204BB200FC
:1046F800D158002907D05869FBF752FD0130430013
:104708001B18033BFDD27F0123685F40E0233B4039
:1047180080225201A21813605346012B1AD9802314
:104728009B01E318802212011A60089B6360104BFA
:10473800B6004246F250C0BCBA46B046F8BD012D9C
:10474800CED10322C0239B01E3181A60A368DB07BC
:10475800FCD5D8E72168694003230B401360A368A0
:104768000122AA401A42FAD0D9E7C0460080004088
:10477800CC0A0020F0B5CE46474680B583B08146C6
:104788000F0090460A9A93421BD31E0E1C020A9AE7
:10479800002320003100FBF71FFE05000200002364
:1047A80020003100FBF718FE03000095424639004F
:1047B8004846FFF77DFF012003B0C0BCB946B046AC
:1047C800F0BD034B034A0448632101F085FAC04653
:1047D800ACD900100CDA0010C0D90010F0B5C646EC
:1047E80000B504000E0017001D003748FBF7D8FC81
:1047F8008046364BFA18364B9A4239D801003800B1
:10480800FBF7CEFC0200103A98235B009A4235D899
:104818006B1E062B38D8069B013B062B34D83F0964
:10482800474537D32D04069B1B031D432368002BE4
:1048380036DB284B9C4244D00C2201239340264A65
:104848001360264A1360264A1268190091430A1E0B
:10485800F9D12660A060234BE31821321A60226840
:10486800002AFCDAE56008221A6080BCB846F0BD70
:104878001D4B1E4A1E48112101F02EFA1D4B1B4AE2
:104888001B48192101F028FA1B4B184A18481C210B
:1048980001F022FA194B154A1548232101F01CFA98
:1048A80022683F231340B342C3D1A3681B051B0DE5
:1048B8008342BED1E368EE22D2021340AB42B8D1A4
:1048C800D3E70D22B9E7C046001BB70080E84BD3F9
:1048D80080F8A93200C0024000E0004000F000402B
:1048E80008C00040043000001CDA001034DB00105F
:1048F8006CDA0010B0DA0010CCDA001018DB001007
:10490800064BAA2212011A602F22DA60044B054ACC
:104918001A60024B5B68002BFBDA704700400240CC
:104928000060024000B0FA0080239B000B43014A5C
:10493800D36270470080054010B58300084A9A1872
:1049480014684022544080322240064CA4466344F6
:104958001A60C000044B9C466044416010BDC046CC
:1049680004C0014004D001400040014080000C4BCD
:104978009C46604400290ED00823002A0DD004224A
:104988001343026853400C2213408022520194467C
:104998006044036070470023EFE70022F0E7C04659
:1049A80004C00140C000064BC31809031B685940E6
:1049B800C0239B011940034B9C466044016070472B
:1049C8000440014004500140002906D08000064BF5
:1049D8009C4660440223036070478000034B9C465A
:1049E800604402230360F7E704E0014004F001405B
:1049F8008000054BC3181B684B4001211940034B2D
:104A08009C4660440160704704C0014004D00140E6
:104A18008000064BC31809011B68594030230B401E
:104A2800034A9446604403607047C04604C001408E
:104A380004D00140072303409B00C00899403C3044
:104A48008000014BC15070470040014010B5D02391
:104A58001B061B68002B03D0024B08F0FDF810BDA5
:104A6800014BFAE73041014000410140002906D0DE
:104A78008000064B9C4660444023036070478000DA
:104A8800034B9C46604440230360F7E704E0014081
:104A980004F00140034B00E01433034A9342FBD374
:104AA8007047C04620D0001098D0001070B5EFF3C2
:104AB800108572B6064B9C6808F00AF9002D02D1E1
:104AC80062B6BFF36F8F2000FEF7AAFB70BDC04629
:104AD800F40A002070B505000A4B8200D45802E0A1
:104AE8002368984708346B1C064A9B009B58A342CE
:104AF80006D96368002BF3D0200008F0ECF8F1E742
:104B080070BDC04648DB0010F0B5C64600B588B099
:104B18000400C5002F1A3F01124EBF190102124BA3
:104B2800C918800000198000104BC018104B07935B
:104B38008022944600220592012304930E330393A6
:104B4800029201920090079B62465200380000F0E2
:104B580059FA7B7B042293437B7308B080BCB84628
:104B6800F0BDC046B008002068130020F40A0020F9
:104B780023CD001010B51900114302D100F0C2FD79
:104B880010BD0249183000F08BFFF9E711CF001073
:104B980030B587B0184C14E0E368A26861682068F3
:104BA800656A0595256A0495E5690395A5690295E1
:104BB800656901952569009500F024FA23685C650C
:104BC80030340E4B9C42E7D300F0B2FC0A4C03E0B1
:104BD8002068FFF7CFFF3034084B9C4207D2A26A07
:104BE800E36A1900501CF3D10131F4D0F0E700F06A
:104BF800B5FC07B030BDC04668D1001068D10010C0
:104C080010B50B4B01241C700320FFF763FF01F064
:104C18005BF808F081F80420FFF75CFFFFF7B8FFA6
:104C2800FDF79CFD034A137BA343137310BDC046D5
:104C3800600B00202009002010B50100024A034B38
:104C48001800FEF7B9FBC046094C001020090020E7
:104C580010B5034A0348121A002108F055F810BD90
:104C6800640B0020A008002010B50400FFF74CFFDB
:104C7800E3001B1B1B010A4A9B180A4AA1000819DA
:104C880080001018C3600474E30207481B188020D2
:104C9800000184466344091989005218536010BD05
:104CA800B0080020F40A0020680B002030B587B057
:104CB80000F08CFC104B114C5C61114B80221149A7
:104CC8001148059001200490002003900290019063
:104CD8000090D200200000F095F90500637B0422C3
:104CE80093436373200008F0CAF80020FFF7BCFF65
:104CF800280007B030BDC046F40A00202009002073
:104D0800094C00106814002040DB001010B500208A
:104D1800FFF7E0FE0E4B83F308880E490A6A0E4B34
:104D28001A40C0231B0413430B62FEF753FAFEF725
:104D38005BFB0A4800F096F9FFF7ACFE0120FFF78D
:104D4800C9FE0220FFF7C6FEFFF7B0FFFFF774FFAA
:104D58006813002000ED00E0FFFF00FF900900202D
:104D6800F0B5C64600B582B0040016001D00EFF38A
:104D7800108772B63B00C168002915D1002953D1AC
:104D8800374A9268927B52B222610131E160344A1B
:104D98009268A260002B02D162B6BFF36F8F002029
:104DA80002B080BCB846F0BD82682D488068824257
:104DB800E4D02900314339D0807B40B20E23D3564A
:104DC8009846190007F0B2FF0100804536DC002341
:104DD80098462448009601952200390000F0EAFA26
:104DE8000028DDD0EFF3108672B63500A368002BDB
:104DF8002BD023689C4226D0002B24D00E20185696
:104E0800216907F093FF0100200007F09AFF0028AE
:104E18001ED14346002B1BD1002D02D162B6BFF331
:104E28006F8F0B204042BBE72269ADE7002F02D10C
:104E380062B6BFF36F8F10204042B1E7200007F041
:104E480080FF8046C5E72169DEE74346002BE3D0B3
:104E58000448310000F03CFB0B204042A0E7C0466C
:104E6800F40A0020140B0020F0B5C64600B5040073
:104E78008368002B4AD0284A9268934249D1C36874
:104E8800012B06D9013BC3600025280080BCB84629
:104E9800F0BDEFF3108772B6B846016907F051FF0D
:104EA8002668B44211D033005A1E9341DDB2002B5C
:104EB8000DD1A660002D1BD10023E3604346002BD3
:104EC800E3D162B6BFF36F8FDFE70026EBE77268C6
:104ED800336813605A60002333607360727B022169
:104EE8008A437273B3603000183008F044F8E0E782
:104EF8000E23F35623610023F366300007F0BFFF4B
:104F08000648390000F0E4FA0025BEE716256D4290
:104F1800BBE701256D42B8E7F40A0020140B002016
:104F2800F0B5C64600B50400EFF3108672B6370038
:104F38000568A8421BD02B005A1E9341DAB290464E
:104F4800002B16D14346002B24D1A368E268934274
:104F580027D001229B18A3600023002B23D1002F08
:104F680002D162B6BFF36F8F80BCB846F0BD002592
:104F7800E1E76A682B6813605A6000232B606B6056
:104F88006A7B02218A436A73AB602800183007F0F5
:104F9800F2FFD7E70023EB66280007F070FF012334
:104FA800DBE70022D6E70248310000F091FADBE7A0
:104FB800140B002030B583B0EFF3108172B684680B
:104FC800002C09D0013C8460002902D162B6BFF3ED
:104FD8006F8F002003B030BD1C00144307D0084C6D
:104FE800009201930200200000F0E4F9F2E70029A2
:104FF80002D162B6BFF36F8F10204042EAE7C04685
:10500800140B0020F0B585B004000E0015001F0039
:10501800030058338365C3650E9B04220D9907F07E
:10502800B9FE2A003100200007F0ADFE05000C9BF8
:1050380002930B9B01930A9B00933B0002003100F3
:105048002000FEF7A1F900236365054B9B68002B40
:1050580004D05B6E6366280005B0F0BD6366FAE7AE
:10506800F40A002001234373037300234366014BB2
:1050780098607047F40A0020084A936898660B21E4
:105088004942D9660649486880235B0503434B605B
:1050980062B6BFF36F8F9368D86E7047F40A00202A
:1050A80000ED00E010B5427B0D23C356002B51DB09
:1050B800D3064FD180235B4213434373264A936937
:1050C800183293420FD100230DE05A684260036002
:1050D800106058601FE01A001F49C9698A4210D041
:1050E8001B68002B0FD0002B0DD00E2141560E222D
:1050F8009A569142EFD0521A002AE6DC1A1EEBD1DA
:10510800EFE70023EDE7144BDA6919001831016065
:1051180042601060D861104B9C6918339C420FD0D4
:10512800002C0DD00C4B9B685A7BD2060BD1DA8928
:105138007F2A08D9A269002A05D1074A536109E0E4
:10514800054BDC68EEE7A34202D0200000F0EAFB42
:10515800014B5C6110BDC046F40A002010B5427BCB
:105168000D23C356002B15DB154B9A689C69183321
:105178009C421AD0002C18D0824219D0537BDB06EF
:1051880016D1D3897F2B13D9A369002B10D10C4BCF
:105198005A6114E07F231340437342680368136025
:1051A8005A60002303604360DEE7054BDC68E3E7F1
:1051B800A24202D0200000F0B5FB014B5C6110BD9B
:1051C800F40A0020F0B5C64600B505000C003D4BBA
:1051D8009E68737B60221A4222D09A0626D5082739
:1051E8003B421DD13B4373735AB2002A20DB082F80
:1051F80029D000239846334B9E6918339E4248D0E5
:10520800002E46D02F4B9B68B34202D0300000F0EE
:1052180089FB2C4B5E61102F02D04346002B3BD1FB
:10522800002C40D162B6BFF36F8F3CE01027D7E760
:105238007F22134073737268336813605A600023C7
:1052480033607360D3E7B368002B0BD072683368A0
:1052580013605A60002333607360727B02218A43B3
:105268007273B360300007F0D5FD3000583007F096
:10527800D6FD144B9B689E4202D000239846BAE79D
:10528800EFF30583002B01D19846B4E70123984634
:10529800B1E70C4BDE68B5E70B48FFF7E3FEBFE765
:1052A80062B6BFF36F8F6B7B60221A4207D0EFF3B1
:1052B800108472B607F038FD002CF1D0F3E780BCFB
:1052C800B846F0BDF40A00209009002010B5190076
:1052D800541C01D1013103D00249183000F0E0FB21
:1052E80010BDC04611CF001010B5427B0D23C35628
:1052F800002B0BDB427B80235B42134343732C4A16
:105308009369183293421AD1002318E07F2313407F
:1053180043734268036813605A6000230360436064
:10532800E8E75A6842600360106058601FE01A009E
:105338001F49C9698A4210D01B68002B0FD0002B67
:105348000DD00E2141560E229A569142EFD0521A94
:10535800002AE6DC1A1EEBD1EFE70023EDE7144B39
:10536800DA6919001831016042601060D861104B89
:105378009A689C6918339C420FD0002C0DD0824249
:105388000ED0537BDB060BD1D3897F2B08D9A369B9
:10539800002B05D1064B5A6109E0054BDC68EEE7A6
:1053A800A24202D0200000F0BDFA014B5C6110BDA2
:1053B800F40A002010B50C001100084B9868084A40
:1053C8001060EFF3108272B69868029A039B07F098
:1053D8004AFD2000FFF750FE10BDC046F40A002029
:1053E800140B0020F0B5C64600B504000F000023DA
:1053F800EFF3108672B6002555E07F3313406373D0
:105408006268236813605A6000232360636079B27E
:10541800A173627B803B134363732C4A93691832F0
:1054280093420FD100230DE05A6862602360146034
:105438005C601DE01A002548C06982420ED01B68D6
:10544800002B0DD0002B0BD00E229A569142F1D092
:10545800521A002AE8DC1A1EEDD1F1E70023EFE723
:105468001A4BDA6919001831216062601460DC6136
:10547800164B9A69904618339A420CD0002A0AD0E3
:10548800124B9B68984502D0404600F04BFA0F4BF0
:1054980042465A6112E00D4BDB689846F0E762B667
:1054A800BFF36F8F0123002B0BD1627B1F231340A7
:1054B8005D425D41EDB2002B9FD0A773002EEED068
:1054C800F0E7280080BCB846F0BDC046F40A0020CA
:1054D80010B500290CD1EFF30583002B08D1074B39
:1054E8005A699B689A4203D00800FFF7C5FD04E09B
:1054F800002902D162B6BFF36F8F10BDF40A0020F5
:1055080010B500280BD1EFF30583002B07D1074B0B
:105518005A699B689A4202D0FFF7AEFD04E0002862
:1055280002D162B6BFF36F8F10BDC046F40A0020E7
:105538000023EFF3108172B600E00123002B0AD19B
:10554800054B9A68D37B013BD3730029F5D162B62A
:10555800BFF36F8FF1E77047F40A002070B500239E
:10556800EFF3108572B60FE0174BDC6819E0A24222
:1055780002D0200000F0D6F9134B5C61002D02D157
:1055880062B6BFF36F8F0123002B16D10E4B9A68BA
:10559800D17B0131D1739C6918339C42E4D0002C33
:1055A800E2D0537BDB06E2D1D3897F2BDFD9A36915
:1055B800002BDCD1044B5A61E0E7EFF3108072B6A0
:1055C800FFF79EFF70BDC046F40A002010B50248E0
:1055D80007F0A0FC10BDC046080B002070B5EFF323
:1055E800108472B6234B9A68DB699A4205D0136817
:1055F800516812680A60516006E00023F8E71D4A06
:10560800D269934213D01B68002B12D0194A9068B4
:105618000E2141560E229A569142F0D0521A002A73
:10562800EDDD5A6842600360106058600AE00023AC
:10563800EAE7104B9A68D969180018301060516071
:105648000A60DA610B4B9D6918339D420ED0002D1C
:105658000CD0084B9B689D4202D0280000F062F9EC
:10566800044B5D612000FFF707FD70BD014BDD684D
:10567800EFE7C046F40A0020F0B5C64600B50400BE
:105688000D0003000B432AD002225242D317121BEB
:10569800AB41002B27DD02267642361BEFF310883C
:1056A80072B6154FB868154B1860FFF757FDB86804
:1056B8001349183022002B0000F0F2F9BA68537B26
:1056C80004210B4353734046FFF7D6FC07F078FCE0
:1056D800301A002800DC002080BCB846F0BDFFF777
:1056E8007DFF0020F8E7002B01D1002AD3D107F075
:1056F80067FC0619D2E7C046F40A0020140B002004
:1057080011CF001070B50400EFF3108572B6437B1B
:105718005B0705D4002D02D162B6BFF36F8F70BD51
:10572800183007F028FC637B04229343637320003E
:10573800FFF7B8FC02482900FFF7CAFEEFE7C046AA
:10574800140B0020014B98687047C046F40A0020EB
:10575800F0B5CE4600B582B00400067B01221640A3
:10576800EFF3108772B6457B2A071ED4019758239A
:105778009946814407F018FB002825D020232B43A5
:105788006373EFF30583002B15D039002000FFF772
:1057980019FD002E05D062B6BFF36F8F0423181CC5
:1057A80002DF02B080BCB946F0BD002FF9D162B665
:1057B800BFF36F8FF5E73B4B9868494607F0F6FA59
:1057C8003800FFF759FCE4E708232B43DBB2637387
:1057D8005BB2002B37DBA368002B0BD06268236811
:1057E80013605A60002323606360627B02218A434E
:1057F8006273A3602000183007F0BDFB484607F02D
:105808000EFB284B9A6894422AD000239946254BD0
:105818009D6918339D422CD0002D2AD0AA4202D06F
:10582800280000F07FF81F4B5D614B46002B23D109
:105838001C4B9B689C4223D0019B002BA9D162B6CC
:10584800BFF36F8FA5E77F232B40082213436373B1
:105858006268236813605A60002323606360BAE7B4
:10586800EFF30583002B01D19946D0E70123994630
:10587800CDE70C4BDD68D1E70B48FFF7F3FBD7E723
:10588800EFF30583002BD7D1237BDB0705D562B661
:10589800BFF36F8F0423181C02DF3800FFF7ECFBFF
:1058A80077E7C046F40A002090090020084BC01A88
:1058B800C01083001B181A019B181A029B181A049F
:1058C8009B185B001B18034A0121D1547047C0463E
:1058D800000A0020180B0020C3897F2B11D80E4B1B
:1058E8001B68002B0ED00E2282560C4B1B689A4266
:1058F8000BDB437BDB060AD1094B984209D0012315
:1059080000E000230120184070470023FAE7002335
:10591800F8E70023F6E7C046200B00201C0B002008
:10592800B008002070B505000D4B1E7C7400A4194A
:10593800E4000C4BE418200007F01DFB0A4B002282
:105948009A552800FFF7C8FF002800D170BD074B03
:105958001A68013AD3170649200000F0A1F8F5E7C4
:10596800F40A0020000A0020180B0020200B002059
:10597800B558001070B5EFF3108572B6164B9C68D9
:10598800164B1B68A34219D0144B00221A60124B05
:105998001B7C134AD35C002B0AD02000FFF79CFF26
:1059A800002805D0637BDB0611D02000FFF7BAFF83
:1059B800002D02D162B6BFF36F8F70BD2000FFF7D4
:1059C800B1FF002DF9D162B6BFF36F8FF5E7200064
:1059D800FFF78AFCE9E7C046F40A0020140B002010
:1059E800180B002010B5064A0648121A064907F097
:1059F8008FF9064A0648121A064907F089F910BDB8
:105A0800A008002000000020F0E1001000000020A5
:105A180000000020F0E10010034B1868984200D005
:105A280070470020FCE7C046EC060020002804D0A0
:105A3800034A5268904201D0006870470020FCE792
:105A4800EC06002010B5044B1B68002B01D0002089
:105A580010BDFEF711FEFBE7240B002070B5FFF721
:105A6800DBFF0400FFF7EEFF002C14D02269636906
:105A78000400C517121BAB41002B08DC03D0100033
:105A8800002B06DB70BD802109068A42F7D3034844
:105A9800F8E70020F6E70148F4E7C046FFFFFF7F7C
:105AA800D0B5CE4600B585B0040000920193009EA3
:105AB800019F3B003200013206D0A1600023EFF3C2
:105AC800108272B691464AE00133F6D105B080BC27
